S0160000455345353136204D41494E2046572E7372656393
S214012000587A00205D980200559902005599020001
S21401201000000000000000000000000000000000BA
S2140120200000000000000000000000008D89010093
S2140120300000000000000000B18A0100F98A0100DA
S214012040559902005599020055990200AD590200B2
S214012050D94E0200559902007126010055990200D9
S214012060B52701005160020069600200816002002C
S21401207099600200B1600200C9600200A5970200E3
S214012080B9970200CD970200796601008D660100BE
S214012090A16601000000000000000000F924010014
S2140120A055990200352601005599020055990200FE
S2140120B00000000010B5064C2378002B07D1054B15
S2140120C0002B02D0044800E000BF0123237010BD9E
S2140120D0000300200000000088870300084B10B5AD
S2140120E0002B03D00749084800E000BF07480368F3
S2140120F0002B00D110BD064B002BFBD09847F9E70B
S214012100000000000403002088870300888703007E
S2140121100000000080B584B000AF0200FB1D1A70FD
S2140121200F23FB18FA1D1278D2091A700E23FB181A
S214012130FA1D127852091A700D4BBB600F23FB185B
S2140121401B78002B0FD10F23FB181B789B00102246
S2140121509446BC446344083B1A680E23FB181B785C
S214012160DB01D31800E000231800BD4604B080BD93
S2140121700044004180B582B000AF0200FB1D1A701A
S214012180FB1D1B781800034B984703001800BD463B
S21401219002B080BD1521010080B582B000AF786025
S2140121A07B6800221A707B6801225A707B680022C5
S2140121B09A70C046BD4602B080BD000080B584B0AE
S2140121C000AF0200FB1D1A70FB1D1B7818000B4B9D
S2140121D098470300FB60FB1D1B781F22134001225A
S2140121E09A401300BB60FB681B69BA6813405A1E0D
S2140121F09341DBB21800BD4604B080BD75210100D5
S21401220080B584B000AF0200FB1D1A70BB1D0A1C0E
S2140122101A70FB1D1B7818000D4B98470300FB60D6
S214012220FB1D1B781F22134001229A401300BB603E
S214012230BB1D1B78002B03D0FB68BA689A6102E0CD
S214012240FB68BA685A61C046BD4604B080BDC04648
S2140122507521010080B582B000AF3B1D18000D4B03
S21401226098473B1D01221A703B1D19000A200A4B94
S21401227098473B1D1800074B98473B1D01221A70D3
S2140122803B1D19000B20044B9847C046BD4602B0C3
S21401229080BDC046992101003D53020080B582B041
S2140122A000AF0200FB1D1A700B200F4B984703006E
S2140122B01A0001235340DBB2002B0DD0FB1D1B7807
S2140122C0002B04D001210A20084B984708E0002182
S2140122D00A20064B984703E000210A20034B984743
S2140122E0C046BD4602B080BDBD21010001220100ED
S2140122F080B582B000AF0200FB1D1A70FB1D1B7873
S214012300002B04D001210B20054B984703E0002148
S2140123100B20034B9847C046BD4602B080BDC04661
S2140123200122010080B584B000AF78607B681B682D
S214012330FB60FB685B7EDBB25BB2002B01DA01233C
S21401234000E000231800BD4604B080BD80B584B00F
S21401235000AF78607B681B68FB60C0467B6818002E
S2140123600B4B9847031EF9D1FB681B7BDBB202229D
S2140123701343DAB2FB681A73C0467B681800044B35
S2140123809847031EF9D1C046BD4604B080BDC0467D
S2140123902523010080B584B000AF78600A00FB1CDD
S2140123A01A707B681B68FB60FB68FA1C12789A75CA
S2140123B0C046BD4604B080BD80B584B000AF020003
S2140123C0FB1D1A70FB1D1A78474B9200D358FB6011
S2140123D0FB681B681B7EDAB2FB681B68DB7DDBB221
S2140123E01340DBB2BB60BB680122134045D0FB68DB
S2140123F01B6801221A76C046FB6818003B4B9847BB
S214012400031EF9D1FB685B69991CFA685161FA6889
S2140124101268528B92B21A80FB681B8B9BB2013BEF
S2140124209BB2FA68191C1183002B08D0FB685B7FEE
S214012430002B22D0FB6818002D4B98471DE0FB6847
S214012440012118002B4B9847FB681B7FDBB2052B3D
S21401245013D1FB6800221A77FB68DB7E1A00012382
S21401246013400AD0FB689B7E1A000123134004D058
S214012470FB689B68FA6810009847BB680422134003
S21401248014D0FB681B6804221A76FB68DB7E1A00F0
S214012490022313400AD0FB689B7E1A0002231340D6
S2140124A004D0FB68DB68FA6810009847BB68022214
S2140124B0134014D0FB681B6802221A76FB68DB7E89
S2140124C01A00042313400AD0FB689B7E1A000423DB
S2140124D0134004D0FB681B69FA6810009847C04691
S2140124E0BD4604B080BDC046A84500202523010096
S2140124F04D2301009523010080B500AF0020024B5B
S2140125009847C046BD4680BDB923010080B582B05C
S21401251000AF0200FB1D1A70074AFB1D1B7819004D
S2140125201F230B40012199400B0019008023D15035
S214012530C046BD4602B080BD00E100E080B584B073
S21401254000AF0200FB1D1A70FB1D1A78374B920074
S214012550D358FB60FB681B68BB60BB689B79DBB22A
S2140125601A00012313400ED0BB6801229A71FB6842
S2140125701433002B07D0FB685B7C002B03D0FB6871
S2140125809B6900209847BB689B79DBB21A0002233F
S214012590134047D0BB6802229A71FB689B899BB2A5
S2140125A0002B33D0FB689A68FB68DB899BB2591C09
S2140125B088B2F968C8815B00D3181B889AB2BB68D9
S2140125C09A81FB689B899BB2013B9AB2FB689A8110
S2140125D0FB689B899BB2002B18D1FB682022002147
S2140125E09954BB6802221A71BB6802229A7119209B
S2140125F00F4B9847FB681433002B07D0FB689B7C76
S214012600002B03D0FB68DB6900209847FB68143376
S214012610002B07D0FB681B7C002B03D0FB685B6993
S21401262000209847C046BD4604B080BDAC4500209A
S2140126300D25010080B500AF0020024B9847C0462B
S214012640BD4680BD3D25010080B500AF024B9847D1
S214012650C046BD4680BDC046394B020080B500AFBE
S214012660024B9847C046BD4680BDC0468D4B020012
S21401267080B586B000AF494B9847494B1B8C9BB23F
S214012680DAB21723FB180F210A401A701723FB181A
S2140126901A78444B9200D3583B61414A3B691B78F8
S2140126A00F210B40D9B23F23D1543D490F23FB18CC
S2140126B04E228A5C1A703B691B783B4A1B01D31871
S2140126C002331B889BB2BB603B691B78374A1B01F0
S2140126D0D31802331B889BB27B60BA687B68D21A18
S2140126E03B695A610F23FB181B780122134016D051
S2140126F02B4A4E230121D1543B6910225A743B695F
S2140127001B7C1A000123134042D03B695B68002BF7
S2140127103ED03B695B683A691000984738E00F2362
S214012720FB181B780222134016D01D4A4E230221A5
S214012730D1543B6900225A743B691B7C1A00022360
S214012740134025D03B699B68002B21D03B699B68D1
S2140127503A69100098471BE00F23FB181B780422E8
S214012760134015D00E4A4E230421D1543B6906224C
S2140127705A743B691B7C1A000423134008D03B693A
S214012780DB68002B04D03B69DB683A691000984788
S214012790074B9847C046BD4606B080BD4926010096
S2140127A00048004170030020B045002020030020AF
S2140127B05D26010080B582B000AF154B1B697B60BA
S2140127C0144B9B693B60124B9A683B681A43104B4B
S2140127D09A60104B104A9A6108E07B685A687B68D9
S2140127E01B68180090477B689B687B607B68002BA2
S2140127F0F3D1074BDB683B60054B9B683A68D243D5
S2140128001A40034B9A60C046BD4602B080BDC04622
S2140128100000002000040042FFFF0F0F80B582B0C9
S21401282000AF02003960FB1D1A70FB1D1B78012BDF
S2140128300AD0022B0FD0002B14D10E4B0D4A9169F2
S2140128403A680A439A610FE00A4B0A4AD1693A6824
S2140128500A43DA6108E0074B064A116A3A680A43F6
S2140128601A6201E0172300E000231800BD4602B0FB
S21401287080BDC0460004004080B500AF02210220A2
S214012880074B9847074B01221A70C046054B1B7829
S214012890DBB21A0001231340F8D1C046BD4680BD05
S2140128A01D2801000004004280B584B000AF7860A6
S2140128B07B681B68FB60FB68DB69072213405A1EB6
S2140128C09341DBB21800BD4604B080BD80B582B02E
S2140128D000AF7860C0467B681800044B9847031E1B
S2140128E0F9D1C046BD4602B080BDC046A928010048
S2140128F080B584B000AF78607B681B68FB60FB68BE
S2140129001B681B01DB0FDBB21A000B23FB18511EE1
S2140129108A411A700823FB187A68528B1A807B68E2
S2140129209B8B9AB20823FB180821791809888A1A02
S2140129301A807B689B8B9BB2013B9AB27B689A8319
S2140129400B23FB181B78002B10D07B68DB7A002B3F
S2140129501CD07B689B8B9BB2012B17D1FB685B68F5
S2140129608022D2021A43FB685A600FE07B68DB7A4A
S214012970002B0BD07B689B8B9BB2002B06D1FB6890
S2140129805B688022D2021A43FB685A607B689B8B85
S2140129909BB2002B0ED17B689B7A002B0AD07B68FA
S2140129A018000E4B9847FB685B68C02292021A43D8
S2140129B0FB685A607B681800084B98477B681A6A60
S2140129C00823FB181B88D318FA682821525CD2B258
S2140129D01A70C046BD4604B080BDC046CD28010071
S2140129E080B584B000AF78607B681B68FB60FB68CD
S2140129F05B8B9BB21A000423134004D07B6825220C
S214012A001E21995424E00A23FB187A68528B1A80F7
S214012A107B689B8B9AB20A23FB180A2179180988CE
S214012A208A1A1A807B689B8B9BB2013B9AB27B68A1
S214012A309A837B681800084B98477B681A6A0A23B2
S214012A40FB181B88D3181B78D9B2FB682822995427
S214012A50BD4604B080BDC046CD28010080B584B017
S214012A6000AF78607B681B68FB60FB681B7EDBB28F
S214012A701A00012313402BD0FB6801221A76FB684B
S214012A805B8B9BB21A000223134004D07B6825227D
S214012A90412199541CE0FB685B8B9BB21A0004230E
S214012AA0134015D07B682522182199547B68002293
S214012AB09A837B689B7A002B0AD07B681800134B9D
S214012AC09847FB685B68C02292021A43FB685A600B
S214012AD07B689B8B9AB27B685A837B6825229B5CBA
S214012AE0DBB2052B0ED17B6824229B5CDBB2002B6C
S214012AF004D17B681800064B984703E07B681800F2
S214012B00044B9847C046BD4604B080BDCD280100A1
S214012B10E1290100F128010080B584B000AFF8601A
S214012B20B960FB1D1A70FB1D1B78FA6802339B0007
S214012B30D3180433BA681A60FB681B7EDBB25AB23C
S214012B40FB1D1B78012199400B005BB213435BB25E
S214012B50DAB2FB681A76C046BD4604B080BD0000F6
S214012B6090B587B000AF786039607B681B683B61C1
S214012B703B685A687B681A623B685A887B689A8306
S214012B807B682422012199547B68252205219954CA
S214012B903B691B681B01DB0FDBB21A000F23FB1816
S214012BA0511E8A411A703B685B7A002B06D03B683F
S214012BB09A7A7B68110018003B4B98470F23FB1845
S214012BC01B78002B0BD03B685B88012B07D13B6938
S214012BD05B688022D2021A433B695A6005E03B6972
S214012BE05B68324A1A403B695A603B681B7A002B85
S214012BF045D03B681B885A003B685B7A9B031343AE
S214012C001A0080231B021A433B695A621723FC18D9
S214012C107B681800264B9847030023703B695B6866
S214012C20224A1A403B695A601723FB181B78002B6F
S214012C3007D11723FC187B6818001E4B9847030022
S214012C4023701723FB181B78002B14D13B69032232
S214012C509A753B681B881B0A9BB2782213439BB26A
S214012C605A003B685B7A9B031343012213431A0005
S214012C703B695A6212E01723FB181B780FE03B6989
S214012C8003229A753B681B885B0001221A433B6846
S214012C905B7A9B0313431A003B695A6200231800B0
S214012CA0BD4607B090BDC04625660100FFFFFBFF8D
S214012CB0C76501006965010080B582B000AF786024
S214012CC039607B689B8B9BB2002B01D005230CE0FF
S214012CD07B6801229A727B680122DA723A687B6805
S214012CE011001800034B984703001800BD4602B0B8
S214012CF080BDC046612B010080B584B000AF78600E
S214012D0039607B681B68FB603B685B7A002B06D0EA
S214012D103B689A7A7B68110018001E4B9847FB683F
S214012D205B681D4A1A40FB685A603B685A687B68B4
S214012D301A623B685A887B689A837B682422002142
S214012D4099547B68252205219954FB6803229A75BC
S214012D503B681B7A002B0DD03B681B885A003B68EA
S214012D605B7A9B0313431A0080231B021A43FB68FA
S214012D705A6209E03B681B885A003B685B7A9B03F2
S214012D8013431A00FB685A6200231800BD4604B0BC
S214012D9080BDC04625660100FFFFFBFF80B582B0FF
S214012DA000AF786039607B689B8B9BB2002B01D0AB
S214012DB005230CE07B6801229A727B680122DA7295
S214012DC03A687B6811001800034B98470300180007
S214012DD0BD4602B080BDC046F92C010080B582B068
S214012DE000AF786039607B689B8B9BB2002B01D06B
S214012DF005230CE07B6800229A727B680122DA7256
S214012E003A687B6811001800034B984703001800C6
S214012E10BD4602B080BDC046F92C010080B586B023
S214012E2000AF0200FB1D1A70FB1D1A78934B92002F
S214012E30D3587B617B691B683B613B691B681B013F
S214012E40DB0FDBB21A000F23FB18511E8A411A70E2
S214012E500E23FB187A69527E1A707B691B7EDAB2E2
S214012E600E23FB180E21791809780A401A707B691F
S214012E705B8B9BB2002B09D17B699B8B9BB2002B92
S214012E8004D07B6918007E4B984770E07B695B8BAA
S214012E909BB2002B39D07B699B8B9BB2002B34D124
S214012EA07B6925229B5CDBB2052B2ED17B69242214
S214012EB09B5CDBB2002B28D13B6903221A757B6928
S214012EC000225A837B692522002199547B699B7ACB
S214012ED0002B0BD07B6918006A4B98473B695B68EF
S214012EE0C02292021A433B695A6002E03B69012202
S214012EF01A760E23FB181B780122134037D07B6904
S214012F00DB687A691000984731E07B695B8B9BB27E
S214012F10002B2CD07B699B8B9BB2002B27D03B6967
S214012F205B8B9BB21A002023134011D10F23FB1891
S214012F301B7801225340DBB2002B04D17B699B8BAB
S214012F409BB2012B04D07B692522412199540EE0C6
S214012F507B6924229B5CDBB2002B04D17B691800C1
S214012F60494B984703E07B691800484B98477B69B3
S214012F705B8B9BB2002B47D07B699B8B9BB2002B54
S214012F8042D17B6925229B5CDBB2052B3CD17B6958
S214012F9024229B5CDBB2012B36D13B691B7EDBB264
S214012FA01A000223134002D03B6902221A763B69BB
S214012FB003221A757B6900225A837B692522002128
S214012FC099540E23FB181B78022213400BD07B6901
S214012FD024229B5CDBB2012B05D17B691B697A69D4
S214012FE01000984710E00E23FB181B7801221340AF
S214012FF00AD07B6924229B5CDBB2002B04D17B695F
S214013000DB687A69100098477B6925229B5CDBB2F6
S214013010052B2ED07B6925229B5CDBB2002B28D0AA
S2140130203B6903221A757B6900225A837B69002259
S2140130309A837B6925229B5CDBB2412B0ED07B6990
S2140130409B7A002B0AD07B6918000E4B98473B6988
S2140130505B68E022D2021A433B695A600E23FB18D2
S2140130601B780422134004D07B695B697A691000DF
S2140130709847C046BD4606B080BDC046C859002028
S2140130805D2A0100CD280100E1290100F128010097
S21401309080B500AFBFF34F8F024B034ADA60BFF330
S2140130A04F8FFEE700ED00E00400FA0580B500AFA3
S2140130B0024B9847C046BD4680BDC04691300100D0
S2140130C080B586B000AF78609E4B18009E4B98473F
S2140130D09E4B18009C4B98479D4B18009A4B98475F
S2140130E09C4B1800984B98479B4B1800964B98475B
S2140130F09A4B1800944B9847994B1800924B984757
S214013100984B1800904B9847974B18008E4B984752
S2140131101723FB1800221A70944B1800944B9847FB
S214013120032200210120934B98470200924B1A601C
S214013130914B1B68002B07D1904B19000320904B35
S214013140984700208F4B98470C23FB1818008E4B8E
S21401315098470C23FB181B780A2B04D00C23FB186A
S2140131601B780D2B37D1894B1800814B9847884B1C
S21401317000221A70874B00221A708749874B31222A
S2140131801800874B9847854B312200219954854971
S214013190814B82221800844B984703003B61814B88
S2140131A08122002199547F4B1800714B98473B6947
S2140131B0002BECD11723FB1800221A70764B322213
S2140131C000211800794B9847764B8222002118007F
S2140131D0764B9847B5E06E4B1B78002B59D06D4B5C
S2140131E01B78032B0CD86B4B1B785A1CD1B2694A3F
S2140131F011701A000C23FB1819786D4B995405E0D1
S214013200634B00221A70634B00221A70614B1B78C5
S214013210012B99D9674A664B11001800664B9847EF
S214013220031E2FD065495C4B1B221800644B984740
S214013230594B18004E4B98471723FB1800221A705B
S214013240554B322200211800584B98475349524B90
S21401325031221800524B98474F4B1800594B98474C
S2140132600300302B06D84D4B1800564B98470300E9
S214013270DAB200E031221723FB181A70464B180009
S2140132803B4B9847424B00221A70424B00221A7061
S2140132905AE70C23FB181B780D2B00D154E70C239F
S2140132A0FB181B78082B04D00C23FB181B787F2BEC
S2140132B01CD10823FB18444A12681A600823FB181D
S2140132C018002B4B98471723FB181B78002B37D079
S2140132D01723FB181A781723FB18013A1A701723BD
S2140132E0FB181B782C4A0021D15429E00C23FB182B
S2140132F01B781B2B06D1264B01221A70254B002268
S2140133001A7021E71723FB181B78312B0ED81723C9
S214013310FB181B780C22BA1811781F4AD1541723B0
S214013320FB181A781723FB1801321A700C23FB18A6
S21401333000225A700C23FB1818000D4B984703E720
S214013340C04601E7B44803006D6701003449030035
S214013350C4480300D4480300E4480300244903009A
S214013360F4480300044903001449030060450300C0
S21401337095C60100358D010008460020F046030081
S21401338081C7010021AB0100CD33010010470300C6
S2140133909403002095030020CC030020980300200E
S2140133A06B35030000040020DD6701009F31030038
S2140133B08404002014470300A134030018470300C7
S2140133C05D3403003B3503002047030080B584B01D
S2140133D000AF78607B6818000C4B98470300FB60D1
S2140133E00DE00B4B1A6801235B4219001000094BD4
S2140133F098477B681800054B98470300FB60FB68FD
S2140134000133EED0C046BD4604B080BD31C70100D1
S21401341008460020ED9C010080B500AF0A4B002253
S2140134201A600A4B1B68084A11001800084B984797
S214013430054B1B68002B03D0064B802252051A60F1
S214013440C046BD4680BDC046880400200846002010
S2140134506596010004ED00E090B587B000AFF86016
S214013460B9607A601723FB181B221A701723FB1802
S2140134701B78084A08480F21084CA047064AB96835
S214013480FB681800054B984700231800BD4607B097
S21401349090BDC0462447030084030020F93303008F
S2140134A090B593B000AFF860B9607A6002201F4B08
S2140134B098471F4B98471F4B18001F4B98471423DC
S2140134C0FB181E4A13CA13C31423FB1830221A70A2
S2140134D04723FC181423F9182023FB180A22180086
S2140134E0174B9847030023704723FB181B78002BC4
S2140134F008D04723FB181A78124B19000020124BEC
S214013500984703E0114B18000B4B98472023FB18F4
S21401351018000F4B98470F4B18000F4B98470F4B4F
S214013520984700231800BD4613B090BDA95D010061
S214013530D15201002C47030095C60100A0470300A5
S21401354091C202005847030081C701006847030083
S21401355091CC02001027000041AA0100AD30010005
S21401356080B584B000AFF860B9607A60034B9847C5
S21401357000231800BD4604B080BDC046AD30010032
S21401358090B58FB000AFF860B9607A601823FB1869
S21401359000221A701823FB1800225A701823FB18F1
S2140135A000221A701823FB1800225A701C23FB18DD
S2140135B000221A701C23FB181422BA189A601C23C6
S2140135C0FB180122DA811C23FB181822BA185A604C
S2140135D01C23FB1801229A812A4B18002A4B984774
S2140135E000237B6342E07B6B284A29480F21294C44
S2140135F0A047274B1800244B984700233B632BE03A
S2140136007B6BDAB23B6BDBB2D318DAB21C23FB1846
S2140136101A701C23FB186422642118001E4B98475D
S2140136200300FB62FB6A002B0CD11C23FB181B78E2
S2140136301A4A17480F21174CA047154B1800124B72
S214013640984706E0124B164A1A60114B18000E4BAB
S21401365098473B6B01333B633B6B0F2BD0DD114B24
S2140136601800094B98477B6B10337B637B6B7F2B72
S214013670B9DD0C4B1800044B984700231800BD46D3
S2140136800FB090BDC447030095C60100F84703007C
S21401369084030020F933030091420100004803002F
S2140136A0582020001047030090B589B002AFF8609B
S2140136B0B9607A601423FB1818000A4B9847142344
S2140136C0FB185B881C001423FB181B88064AB96884
S2140136D0F86800932300054CA04700231800BD4658
S2140136E007B090BDA545010008480300F933030063
S2140136F090B589B002AFF860B9607A601023FB1804
S21401370018000E4B98471023FB181A680C4B101C18
S214013710984704001023FB185A68094B101C984759
S2140137200300084AB968F86800932300064CA047CE
S21401373000231800BD4607B090BDC046CD47010026
S2140137404D1603002C480300F9330300F0B58FB083
S21401375004AFF860B9607A602023FB181800234B89
S21401376098471C23FB181800214B98472023FB1869
S2140137701A68204B101C984706002023FB185A682D
S2140137801C4B101C984704001C23FB185B881D006B
S2140137901C23FB181B88184AB968F8680293019520
S2140137A000943300154CA0471C23FB185A88142399
S2140137B0FB181A802023FB181A680E4B101C98471A
S2140137C003009AB21423FB185A800D4B9847030046
S2140137D09AB21423FB189A801423FB181800094B7D
S2140137E0984700231800BD460BB0F0BDCD47010039
S2140137F0A54501004D16030050480300F9330300A8
S2140138007D440100DD5D010090B587B000AFF86032
S214013810B9607A601723FC180B4B98470300237096
S2140138201723FB181B78002B04D0084B1800084BF5
S214013830984703E0074B1800054B984700231800EC
S214013840BD4607B090BDC0467D44010090480300C8
S21401385095C60100A048030080B584B000AFF860AB
S214013860B9607A600120054B98470120044B9847C0
S21401387000231800BD4604B080BDC0469D2201004D
S214013880F122010080B588B000AF7860194B1800AE
S214013890194B98472820194B98471823FB181800EE
S2140138A0174B98471423FB181800164B98471423F8
S2140138B0FB185A880C23FB181A801823FB181A6861
S2140138C0114B101C984703009AB20C23FB185A8020
S2140138D00E4B984703009AB20C23FB189A800C23D0
S2140138E0FB1818000A4B9847FA235B001800034B95
S2140138F09847D2E74449030095C6010041AA010052
S214013900CD470100A54501004D1603007D44010089
S214013910DD5D010080B582B000AF0200FB1D1A70AC
S214013920064BFA1D127811001F220A400121914010
S2140139300A001A60C046BD4602B080BD00E100E044
S21401394080B584B000AF78607B681B68FB60FB685D
S214013950DB69072213405A1E9341DBB21800BD46AD
S21401396004B080BD80B582B000AF7860C0467B6889
S2140139701800044B9847031EF9D1C046BD4602B055
S21401398080BDC0464139010080B582B000AF786085
S2140139907B6864221A607B681B4A5A607B68002237
S2140139A09A607B6800221A737B6800221A767B680D
S2140139B0802292031A617B6801225242DA827B6876
S2140139C0012252429A827B680022DA617B680022D9
S2140139D01A627B682422002199547B6800229A622D
S2140139E07B682C22002199547B682D220021995452
S2140139F07B682E22002199547B68D7221A86C046FE
S214013A00BD4602B080BDC046480D000080B584B0FA
S214013A1000AF78607B681B68BB600023FB607B6837
S214013A201800144B9847BB681B6802221A43BB68F0
S214013A301A607B681B6818000F4B98470300180034
S214013A400E4B98470CE0FB680133FB607B68DB8814
S214013A501A00FB689A4203D8BB6810225A8306E014
S214013A60BB685B8B9BB21A0010231340EBD0BD469C
S214013A7004B080BD653901000D60020015390100F2
S214013A8080B582B000AF78600A00FB1C1A707B68B4
S214013A905B7EDBB25AB2FB1C1B78012199400B00FE
S214013AA05BB213435BB2DAB27B685A76C046BD4658
S214013AB002B080BD90B591B000AF0023FB633A23FE
S214013AC0FB1800221A703B1D1800214B98473B1D1E
S214013AD0204ADA613B1D204A1A623B1DFA229200F7
S214013AE0DA823B23FB1803221A701EE03A23FC18E5
S214013AF03A1D1A491A4B18001A4B984703002370AF
S214013B003A23FB181B78002B04D13A23FB181B78A9
S214013B10FB630FE0124B1800134B98473B23FB182F
S214013B201A783B23FB18013A1A703B23FB181B78C3
S214013B30002BDBD1FB6B002B04D1094B18000B4B80
S214013B40984700E0C046FB6B1800BD4611B090BD1B
S214013B50893901000200080002000900000800423D
S214013B6014460020CD630100016501000D3A0100F5
S214013B7080B584B000AF78600E4B00221A700D4BF2
S214013B8001229A600023FB600B4B1B680C22BA18BB
S214013B9011001800094B9847094B00221A70FB6860
S214013BA0002B03D0074B802252051A60C046BD4643
S214013BB004B080BD900400203C46002065960100BC
S214013BC08C04002004ED00E080B584B000AF78607E
S214013BD00E4B00221A700D4B01229A600023FB60E7
S214013BE00B4B1B680C22BA1811001800094B98479A
S214013BF0094B00221A70FB68002B03D0074B80226A
S214013C0052051A60C046BD4604B080BD900400202F
S214013C103C460020659601008C04002004ED00E07F
S214013C2080B584B000AF78600E4B00221A700D4B41
S214013C3001225A600023FB600B4B1B680C22BA184A
S214013C4011001800094B9847094B01221A70FB68AE
S214013C50002B03D0074B802252051A60C046BD4692
S214013C6004B080BD900400203C460020659601000B
S214013C708C04002004ED00E080B500AF1149124B22
S214013C8000221800114B98470F4B00211800104BCB
S214013C90984710490C4B012218000C4B98470A4BC9
S214013CA0012118000A4B98470B49074B02221800BE
S214013CB0064B9847044B02211800054B9847C0460F
S214013CC0BD4680BD713B010014460020192B010042
S214013CD0813A0100C93B0100213C010080B582B058
S214013CE000AF00237B60144B984703007B607B6822
S214013CF0002B1AD1114B98470120114B984702000F
S214013D00104B1A600322002101200F4B9847020036
S214013D100E4B1A600B4B1B68002B03D00B4B1B681A
S214013D20002B03D106237B6000E0C0467B681800A9
S214013D30BD4602B080BDC046B53A0100793C0100DF
S214013D409D8F010010460020358D01003C46002065
S214013D5090B585B000AF78600023FB607B68002BD0
S214013D6003D07B685B68002B03D108235B42FB60B2
S214013D701FE07B681B789AB2104B1A807B685A68E2
S214013D800E4B5A607B68DA890C4B5A800B23FC1861
S214013D900A4A0B4B110018000A4B98470300237080
S214013DA00B23FB181B78002B03D006235B42FB601A
S214013DB0C046FB681800BD4605B090BD40460020D1
S214013DC0144600209D2D010090B585B000AF7860A7
S214013DD00023FB607B68002B03D07B685B68002BAD
S214013DE003D108235B42FB601FE07B681B789AB215
S214013DF0104B1A807B689A680E4B5A607B689A89CA
S214013E000C4B5A800B23FC180A4A0B4B1100180066
S214013E100A4B9847030023700B23FB181B78002BD3
S214013E2003D006235B42FB60C046FB681800BD4614
S214013E3005B090BD4046002014460020B92C010074
S214013E4090B583B000AF00237B60094B1868002350
S214013E5000220021074CA0470300012B02D01423A7
S214013E605B427B607B681800BD4603B090BDC046D0
S214013E7010460020DD8F010080B584B000AF786069
S214013E800023FB60084B1B687A6811001800074B7B
S214013E9098470300012B02D01D235B42FB60FB68A1
S214013EA01800BD4604B080BD10460020ED9C010000
S214013EB080B584B000AF78600023FB60044B1A68BD
S214013EC07B681A60FB681800BD4604B080BDC0461A
S214013ED03C46002080B500AF024B1B781800BD465B
S214013EE080BDC0468C04002080B582B000AF0200C1
S214013EF0FB1D1A70034BFA1D12781A70C046BD4698
S214013F0002B080BD8C04002080B584B000AF78601C
S214013F1039600023FB600023BB6096235B0018001A
S214013F20284B98470300FB60FB68002B38D1082319
S214013F30FB181800244B98470300FB60FB68002B16
S214013F4030D17B681800214B98470300FB60FB6863
S214013F50002B2AD1BB683A68110018001C4B984701
S214013F600300012B11D11B4B9847031E11D00020D3
S214013F70194B9847FB68002B03D021235B42FB605B
S214013F8014E003235B42FB6010E003235B42FB600B
S214013F900CE0124B98470200FB681343FB6002E0FB
S214013FA0C04600E0C046FB6807E0C0460B4B98479A
S214013FB00200FB681343FB60FB681800BD4604B0B3
S214013FC080BDC046793E0100B13E0100513D010071
S214013FD0ED9C0100D53E0100E93E0100413E010095
S214013FE090B589B000AF78600023FB610023BB6108
S214013FF000237B6100233B617B68002B03D07B6839
S2140140005B68002B03D108235B42FB611FE07B68E2
S2140140101B789AB2104B1A807B685A680E4B5A600E
S2140140207B68DA890C4B5A800F23FC180A4A0B4B23
S214014030110018000A4B9847030023700F23FB1842
S2140140401B78002B03D006235B42FB61C046FB694D
S2140140501800BD4609B090BD404600201446002019
S214014060DD2D010080B586B000AFF860B9607A60DA
S21401407000237B6100233B6196235B001800364BCF
S214014080984703007B617B69002B55D11023FB18F1
S2140140901800324B984703007B617B69002B4DD19A
S2140140A0FB6818002E4B984703007B617B69002B49
S2140140B047D13B697A68110018002A4B98470300DC
S2140140C0012B18D1284B9847031E06D00020274BFA
S2140140D0984703235B427B6134E0BB681800244B9E
S2140140E09847FB681800234B984703007B617B6960
S2140140F0002B04D026E003235B427B6122E03B6970
S2140141007A6811001800174B98470300012B0AD153
S214014110154B9847031E0AD00020144B98470323DB
S2140141205B427B610EE003235B427B610AE0124B3C
S214014130984703007B6102E0C04600E0C0467B6909
S21401414005E0C0460C4B984703007B617B6918006D
S214014150BD4606B080BDC046793E0100B13E0100B5
S214014160E13F0100ED9C0100D53E0100E93E010062
S21401417041AA0100C93D0100413E010080B586B05B
S21401418000AFF860B9607A6000237B6100233B6171
S21401419096235B001800354B984703007B617B69CB
S2140141A0002B55D11023FB181800314B98470300FC
S2140141B07B617B69002B4DD1FB6818002D4B98471E
S2140141C003007B617B69002B47D13B697A6811004C
S2140141D01800294B98470300012B18D1274B984705
S2140141E0031E06D00020264B984703235B427B61C3
S2140141F034E0BB681800234B9847FB681800224B35
S214014200984703007B617B69002B04D026E00323DB
S2140142105B427B6122E03B697A6811001800164B0D
S21401422098470300012B0AD1144B9847031E0AD066
S2140142300020134B984703235B427B610EE0032368
S2140142405B427B610AE0114B984703007B6102E009
S214014250C04600E0C0467B6903E0C0460B4B98476A
S2140142607B691800BD4606B080BDC046793E010098
S214014270B13E0100513D0100ED9C0100D53E01001B
S214014280E93E010041AA0100C93D0100413E01008D
S21401429080B586B000AFF860B9607A6000237B61B4
S2140142A000233B6196235B001800244B98470300CC
S2140142B07B617B69002B33D11023FB181800204B40
S2140142C0984703007B617B69002B2BD1FB681800A4
S2140142D01C4B984703007B617B69002B25D13B690A
S2140142E07A6811001800184B98470300012B13D168
S2140142F0164B9847031E06D00020154B98470323FC
S2140143005B427B6112E0BB681800124B9847124B68
S214014310984703007B6106E003235B427B6105E06F
S214014320C04600E0C0467B6903E0C0460A4B98479A
S2140143307B691800BD4606B080BDC046793E0100C7
S214014340B13E0100513D0100ED9C0100D53E01004A
S214014350E93E010041AA0100413E010080B584B05A
S21401436000AF0200FB1D1A700F23FB18FA1D12780E
S214014370D2091A700E23FB18FA1D127852091A7008
S2140143800D4BBB600F23FB181B78002B0FD10F239F
S214014390FB181B789B0010229446BC446344083BE0
S2140143A01A680E23FB181B78DB01D31800E00023E4
S2140143B01800BD4604B080BD0044004180B582B0FF
S2140143C000AF0200FB1D1A70FB1D1B781800034B83
S2140143D0984703001800BD4602B080BD5D4301004A
S2140143E080B582B000AF78607B6800221A707B6867
S2140143F001225A707B6800229A70C046BD4602B000
S21401440080BD000080B584B000AF0200FB1D1A70AD
S214014410FB1D1B7818000B4B98470300FB60FB1D28
S2140144201B781F22134001229A401300BB60FB68D1
S2140144301B6ABA6813405A1E9341DBB21800BD4688
S21401444004B080BDBD43010080B582B000AF3B1D06
S2140144501800084B98473B1D00221A703B1D01228D
S2140144605A703B1D19002220034B9847C046BD4693
S21401447002B080BDE14301003D53020090B583B018
S21401448000AFFC1D2220074B984703002370FB1D3D
S2140144901B78002B01D0012300E000231800BD4645
S2140144A003B090BD0544010080B584B000AF7860CC
S2140144B00A00BB1C1A800C4BBA1C1288DA810A4B04
S2140144C07A685A60084B00229A60074B00229A814C
S2140144D0054B0A211800054B98470300FB60FB6853
S2140144E01800BD4604B080BD20000020093F010031
S2140144F080B584B000AF78600A00BB1C1A800D4BF3
S214014500BA1C1288DA810B4B7A685A60094B0A4A40
S2140145109A60084B06229A81064B0A22D22118007D
S214014520064B98470300FB60FB681800BD4604B0C5
S21401453080BDC04620000020004600207D410100CD
S21401454080B582B000AF00237B60114B02211800BA
S214014550104B984703007B607B68002B01D07B687B
S21401456011E00D4B022118000C4B984703007B60AD
S2140145707B68002B01D07B6805E0094B02211800FF
S214014580064B98477B681800BD4602B080BDC04602
S21401459014000020A944010018000020F144010085
S2140145A01C00002080B584B000AF7860264B984789
S2140145B00300FB60FB68002B38D1244B1B781B02E1
S2140145C01AB2224B5B781BB213431BB29AB2204B32
S2140145D01A801E4BDB781B021AB21C4B1B791BB2CE
S2140145E013431BB29AB21B4B1A80194B1B881A0035
S2140145F064235343002B02DA174A944663441B1480
S2140146009AB27B681A807B689A1C124B1B88190029
S214014610AF234B43002B02DA0F498C4663441B142D
S2140146209BB22D3B9BB21380012308E0C0467B68FA
S21401463000221A807B68023300221A8000231800A9
S214014640BD4604B080BDC04641450100004600207D
S2140146500C46002006460020FFFF000080B582B011
S21401466000AF78600D4B18000D4B98470D4B01229B
S2140146701A700C4B1B78012B07D0022B07D0002B8E
S21401468007D0084B00221A7004E0C04602E0C0467C
S21401469000E0C0463220044B9847EAE7644903002D
S2140146A095C601005C46002041AA010080B582B093
S2140146B000AF00237B6082235B0119000020064BBC
S2140146C0984703007B600520044B98477B681800D9
S2140146D0BD4602B080BDC046E14601004DEA01007C
S2140146E080B584B000AF0200FB1D1A703B1D0A1C8A
S2140146F01A800023FB600823FB18FA1D12781A7033
S2140147003B1D1B88DAB20823FB185A703B1D1B8819
S2140147101B0A9BB2DAB20823FB189A700E4B48228A
S2140147201A700D4B0822BA185A600B4B0322DA8115
S214014730094B0B22BA189A60074B00229A81064B46
S21401474064211800054B98470300FB60FB681800BE
S214014750BD4604B080BDC04660460020093F01004A
S21401476080B584B000AF39601100FB1D021C1A70C1
S214014770BB1D0A1C1A700023FB600B23FB18FA1DD5
S21401478012781A700F4B48221A700E4B0B22BA1869
S2140147905A600C4B0122DA810A4B3A689A60BB1DBB
S2140147A01B789AB2074B9A81064B642200211800A7
S2140147B0054B98470300FB60FB681800BD4604B034
S2140147C080BDC046604600206540010090B585B0BA
S2140147D000AF78600023FB600823FB180222190053
S2140147E00420294B98470300FB60FB68002B01D08F
S2140147F0FB6844E00823FB181B781A000823FB1803
S2140148005B781B021A43214B10009847204C214A23
S214014810214BA04703000C00190022001F4B080083
S21401482011009847021C7B681A600823FB180222B5
S21401483019000520144B98470300FB60FB68002B0A
S21401484001D0FB681BE00823FB181B781A0008231D
S214014850FB185B781B021A430C4B100098470C4C54
S2140148600C4A0D4BA04703000C00190022000B4B0D
S214014870080011009847021C7B685A60FB68180004
S214014880BD4605B090BDC04661470100A92E030094
S2140148901523030092CB7F48BF7DCD3F9D2F03009C
S2140148A080B584B000AF0200FB1D1A700F23FB1801
S2140148B0FA1D1278D2091A700E23FB18FA1D127807
S2140148C052091A700D4BBB600F23FB181B78002B87
S2140148D00FD10F23FB181B789B0010229446BC4473
S2140148E06344083B1A680E23FB181B78DB01D318B8
S2140148F000E000231800BD4604B080BD004400411E
S21401490080B582B000AF0200FB1D1A70FB1D1B783C
S2140149101800034B984703001800BD4602B080BD3F
S214014920A148010080B584B000AF0200FB1D1A70DB
S214014930BB1D0A1C1A70FB1D1B7818000D4B9847EF
S2140149400300FB60FB1D1B781F22134001229A40C7
S2140149501300BB60BB1D1B78002B03D0FB68BA6835
S2140149609A6102E0FB68BA685A61C046BD4604B067
S21401497080BDC0460149010080B500AF024B002250
S2140149801A70C046BD4680BDB104002080B582B015
S21401499000AF0200FB1D1A70FB1D1B785BB2DB43E8
S2140149A05BB2064A127852B213405BB2DAB2034BDC
S2140149B01A70C046BD4602B080BDC046B104002094
S2140149C080B582B000AF0200FB1D1A70054B1A7845
S2140149D0FB1D1B781343DAB2024B1A70C046BD4664
S2140149E002B080BDB104002080B582B000AF0200E5
S2140149F0FB1D1A70064B1B78FA1D12781340DBB2AA
S214014A005A1E9341DBB21800BD4602B080BDC046B7
S214014A10B104002090B585B000AF786039607B683E
S214014A20002B02D03B68002B01D1002313E00F239B
S214014A30FC1839680A4B002218000A4B98470300F5
S214014A402370074B1800084B98470F23FB181B7859
S214014A505A425341DBB21800BD4605B090BDC04670
S214014A60E406002091C2020091CC020080B59EB0FF
S214014A7000AFF860B960FB1D1A707623FB1801229F
S214014A801A807423FB1800221A806E23FB1800225A
S214014A901A807223FB1800221A802423FB181800A0
S214014AA041231A000021924B98471823FB1818003F
S214014AB009231A0000218E4B98471423FB18002265
S214014AC01A600023BB667123FB1800221A70BB68AC
S214014AD0002B01D1002306E1BA68FB68110018001B
S214014AE0844B984703001A0001235340DBB2002B86
S214014AF001D00123F7E0BB6818007F4B98470300FD
S214014B00402B01D90023EEE0BB682E2118007B4B19
S214014B1098470300BB66BB6E002B52D0BB6E1800D5
S214014B20754B984702006E23FB181A806E23FB18FC
S214014B301B88072B37D87123FB1801221A70BA6E0F
S214014B401823FB18110018006D4B9847BB68180016
S214014B50694B984702006E23FB181B88D31A3C2B1F
S214014B6011D97423FB186E22BA1812883C218A1AAE
S214014B701A807423FB181A88B9682423FB181800B6
S214014B80604B98472AE0BA6EBB68D21A7423FB18AA
S214014B901A807423FB181A88B9682423FB18180096
S214014BA0584B98471AE07423FB183C221A8074234A
S214014BB0FB181A88B9682423FB181800514B98472C
S214014BC00CE07423FB183C221A807423FB181A8805
S214014BD0B9682423FB1818004A4B98477423FB181E
S214014BE01B887422BA18591C11801A002423FB183A
S214014BF02D2199547623FB1800221A807223FB1864
S214014C0001221A8010E07223FA187223FB181B88FF
S214014C10191C8900CB18DB1813807623FB181A8819
S214014C207623FB1801321A807623FB181B88022B89
S214014C30E9D97623FB1801221A804BE07623FB186C
S214014C401A8831491423FB181800304B98477423EF
S214014C50FB181B882422BA18D3181422B918032269
S214014C601800284B98477123FB181B78002B0CD093
S214014C707423FB181B8803332422BA18D31818226E
S214014C80BA18110018001E4B98472423FA18FB681F
S214014C9011001800174B984703001A0001235340D0
S214014CA0DBB2002B0FD0FB1D1A78BB680021180061
S214014CB00F4B98472423FA18BB6811001800104BB5
S214014CC0984701230FE07623FB181A887623FB18F2
S214014CD001321A807623FA187223FB1812881B8871
S214014CE09A42ABD300231800BD461EB080BDC04615
S214014CF09F310300154A01003B350300953503003B
S214014D00F13403006B3503008C4903005D34030066
S214014D1090B583B002AF0120224B984703001A00DA
S214014D2001235340DBB2002B05D01F4B1900012095
S214014D301E4B984732E002201A4B984703001A0090
S214014D4001235340DBB2002B05D0194B190001207B
S214014D50164B984722E00420124B9847031E05D0B5
S214014D60144B19000120114B984717E008200D4BF2
S214014D709847031E05D0104B190001200B4B98478E
S214014D800CE00E4B19000120084B98470C490D48C2
S214014D9000230093002301220B4CA047BD4601B01F
S214014DA090BDC046E94901009449030081C701004E
S214014DB0C0490300EC490300184A0300444A0300B3
S214014DC0704A0300C8460020E5F80200B0B586B078
S214014DD000AF786039607B68002B02D03B68002BFF
S214014DE005D1584B19000120574B9847A6E00820DB
S214014DF0564B984703001A0001235340DBB2002BA1
S214014E0055D000237B61524B30221A70504B3A2208
S214014E105A70504B7B6102E07B69013B7B617B6989
S214014E201B782F2BF8D17B6918004B4B9847030052
S214014E30012B24D97B6901337B617A69474B1100C9
S214014E401800474B98474249464B40221800464BAC
S214014E5098473F4A454B190001203B4B984713237F
S214014E60FC183B493F4B0A221800414B9847030068
S214014E7023701323FB181B78002B12D008E03D4B40
S214014E8019000120304B984720203B4B984755E0AE
S214014E901323FB181A78394B190001202A4B98471F
S214014EA04CE0374B00221A600820334B98477B684A
S214014EB0002B43D00023FB601323FC180C23FB18A4
S214014EC03A68796827482F4DA847030023701323B3
S214014ED0FB181B78002B0CD0224B18002A4B984746
S214014EE02020254B9847294B19000120164B98473F
S214014EF024E0234B1A68FB68D218214B1A60204B1A
S214014F001A68234B1B68234901200F4CA0471C4BF2
S214014F101A681F4B1B689A4210D3124B18001A4B83
S214014F2098471D4B19000120074B98470021172071
S214014F301A4B98471020104B9847C046BD4606B0FE
S214014F40B0BDC046A04A030081C70100E94901007F
S214014F50B40000209C4A03003B350300B600002045
S214014F60F1340300E40600206D4A0100044B0300FF
S214014F7091C20200C44A0300C14901002C4B030040
S214014F800C070020C1C7020091CC0200604B030051
S214014F90080700209C4B0300D04B03002549010065
S214014FA090B585B000AFF860B9607A60BB68042B35
S214014FB000D977E0BB689A003C4BD3181B689F4624
S214014FC03B4B190001203B4B98476BE03A4B1900CD
S214014FD00120384B98470420384B984762E07B689D
S214014FE01B881A007B685B6835490120314CA04755
S214014FF07B681B88C82B0DD17B685A68314B1A60B9
S214015000314B00221A607B685A6880239B009A42C3
S21401501043D803E02020294B984743E07B689A68F1
S2140150207B685B6819001000284B98471020234BBB
S214015030984732E07B685A687B681B681900100045
S214015040224B98477B681B7A002B28D010201B4BDD
S214015050984724E07B681A681D4B19000120154B00
S21401506098477B681B680B331BD10820194B984760
S214015070031E06D0184B1800184B98470820184BEB
S21401508098470420134B9847031E02D00420144B64
S2140150909847144B9847C04603E0C04602E0C04616
S2140150A000E0C046BD4605B090BDC046185203009C
S2140150B0044C030081C701003C4C0300C1490100B8
S2140150C0684C0300080700200C070020CD4D0100A6
S2140150D0A44C0300E9490100E406002091CC02003B
S2140150E08D490100114D010080B582B000AF3A60D4
S2140150F0FB1D021C1A70BB1D0A1C1A703A68BB1DE8
S2140151001978FB1D1B785BB21800034B9847C04605
S214015110BD4602B080BDC046F5F50200B0B586B00A
S21401512004AF786039603B68FF2213401C003B687F
S2140151301B0A1A00FF2313403A68120C1100FF22C3
S2140151400A403968090E0D007868094902950192EE
S2140151500093230002000120064CA0473A687B68B2
S21401516011001800044B9847C046BD4602B0B0BDBA
S214015170D44C030081C7010059F7020090B587B0EF
S21401518002AF02003960FB1D1A70FB1D1B782C2B29
S21401519002D0322B3DD06FE03B68FB60FB681B788A
S2140151A0012B07D1364B19000120364B9847364B59
S2140151B098475EE0FB681B78002B5AD1334B1900E9
S2140151C00120304B98470220314B98470820314B3D
S2140151D09847031E06D0304B1800304B98470820DE
S2140151E02B4B984704202B4B9847031E02D00420D4
S2140151F0274B98472A4B012118002A4B98472A4AE1
S2140152002A48FF230093130002220921284CA047B5
S2140152102FE03B68BB60BB681B781800BB68013396
S2140152201B781C00BB6802331B781A00BB6803336B
S2140152301B78204901930092230002000120114CA3
S214015240A04702201C4B98471C4B1B78012B02D110
S2140152501B4B98470FE01B4A114B110018001A4BC5
S2140152609847031E07D0194B19000120054B984794
S21401527001E0C04600E0C046C046BD4605B090BD50
S214015280044D030081C70100C50D0200244D030033
S2140152908D490100E9490100E406002091CC020095
S2140152A010070020A1E20200484D0300544D030000
S2140152B0F1080200604D0300C1490100B00400205E
S2140152C0114D0100784903006DE10200884D03008D
S2140152D090B583B000AF294B9847294B19000120A0
S2140152E0284B9847FC1D0020274B98470300237046
S2140152F0FB1D1B78012B10D1244B19000120214BDB
S2140153009847234B190001201E4B9847C0460020A2
S214015310204B98470300022BF9D1FB1D1B78002B6D
S214015320E0D11D4B19000120164B98478C239A009B
S2140153301A4B002118001A4B9847BC1D174B190031
S2140153400020184B984703002370BB1D1B780B2BBE
S21401535007D1BB1D1A78144B19000120094B984739
S21401536008E0124B19000120064B98470120104B0C
S2140153709847C046BD4603B090BDC04699D50100CA
S214015380AC4D030081C7010075DA0100E44D03004E
S2140153900C4E0300E9D50100404E0300B404002082
S2140153A09F31030039C20200644E0300944E03008D
S2140153B0C149010080B582B000AF3B1D1800084B03
S2140153C098473A1D074B11001800074B9847054BA5
S2140153D01800064B9847C046BD4602B080BDC04681
S2140153E0890D030070460020AD0D0300990E0300E1
S2140153F080B588B000AF3B001800164B98473B00BD
S214015400802292001A613B00134A5A603B00BC227C
S214015410FF321A803B0001229A703A000F4B1100AE
S21401542018000F4B98470300FB61FB69002B06DA57
S214015430FA690C4B190001200B4B9847FEE70B4A03
S214015440064B110018000A4B9847C046BD4608B0E7
S21401545080BDC0461DF4020070460020C8460020EC
S21401546069F40200B84E030081C70100A14F010094
S21401547055F5020080B582B000AF3A60FB1D021CF4
S2140154801A70BB1D0A1C1A703A68BB1D1978FB1DE1
S2140154901B785BB21800034B9847C046BD4602B066
S2140154A080BDC04615E1020080B582B000AF7860CD
S2140154B039603A687B6811001800034B9847C0466C
S2140154C0BD4602B080BDC04649E1020080B582B04B
S2140154D000AF78607B685B6898687B681B68DA68F1
S2140154E0144B1900144B9847031E1ED17B681B688A
S2140154F098687B681B68DA68104B19000E4B984752
S214015500031E03D100200E4B98470EE07B681B68F4
S21401551098687B681B68DA680A4B1900064B98473F
S214015520031E02D10120064B9847C046BD4602B075
S21401553080BDC046184F030049350300304F0300B5
S2140155409D220100384F030080B582B000AF78601D
S2140155507B685B6898687B681B68DA68144B19007F
S214015560144B9847031E1ED17B681B6898687B689E
S2140155701B68DA68104B19000E4B9847031E03D1BF
S21401558000200E4B98470EE07B681B6898687B6886
S2140155901B68DA680A4B1900064B9847031E02D1AE
S2140155A00120064B9847C046BD4602B080BDC046A6
S2140155B0404F030049350300304F0300F12201003C
S2140155C0384F030080B582B000AF7860044B1900F5
S2140155D00120044B9847C046BD4602B080BDC04678
S2140155E0584F030081C7010090B58BB006AFF86035
S2140155F0B9607A60BB68012B3BD0052B5ED0002BCF
S21401560000D061E07B681B68002B25DB304B19005E
S2140156100120304B98473049304AF86800230593FB
S2140156200023049300230393002302930023019392
S2140156302A4B00930B000121294CA047031E05D0DD
S214015640284B19000120234B98473DE0264B1900B3
S2140156500120204B984737E0244A254B19000120AA
S2140156601C4B9847214AFB6811001800214B9847AC
S2140156702AE07B681B78002B17D11F4B1F49F8685F
S21401568000221F4CA0471F4B1F49F86800221C4CE4
S214015690A0471E4B1E49F8680022194CA0471D4B17
S2140156A0190001200B4B98470EE07B681B781A0007
S2140156B0194B19000120074B984705E0174B1900B5
S2140156C00120044B9847C046C046BD4605B090BD74
S2140156D0744F030081C70100904F0300A04F0300E1
S2140156E0B5E10200AC4F0300D44F03007849030034
S2140156F0F04F03006DE10200C5550100285003007C
S21401570055E30200CD540100184F0300495501002E
S214015710404F030034500300485003007C50030000
S21401572080B588B000AF3B1D18001F4B98473B1D46
S2140157301E4A9A603B1D80229200DA603B1D1C4A7D
S2140157401A613B1D802292005A613B1D194A1A803C
S2140157503B1D194A9A803A1D184B11001800184B28
S21401576098470300FB61FB69002B06DAFA69154BC3
S21401577019000120144B9847FEE7144A0F4B1100FD
S2140157801800134B98470300FB61FB69002B06DAF0
S214015790FA69104B190001200B4B9847FEE7C046EB
S2140157A0BD4608B080BDC046ADE0020048070020F7
S2140157B0480900205B070000701700001007002052
S2140157C0FDDF02009050030081C70100E95501008A
S2140157D0EDE00200C450030080B584B000AF3B1D6D
S2140157E018000B4B98473B1D37221A603B1D0022C1
S2140157F05A603B1D01221A723B1D0222DA723B1DC2
S21401580019000720034B9847C046BD4604B080BD2B
S214015810E55102001952020080B500AF064B002286
S21401582007211800054B984700210720044B98478D
S214015830C046BD4680BDC04645580100E54D020044
S214015840494E0200B0B500AF0C4B1B685A1C0B4BFF
S2140158501A600A4B1B68282B02D9084B01221A60D2
S214015860064B1B68064A07483F21074CA047074BD3
S21401587001221A70C046BD46B0BDC046B000002029
S214015880F850030070000020F9330300480B002095
S21401589080B500AF154A164B11001800154B9847F6
S2140158A0031E08D0144B19000120144B984702E040
S2140158B00020134B98470E4B34229B5C002BF7D1EC
S2140158C0104B9847104B01221A70104A104B1100CA
S2140158D01800104B9847104B9847104B9847104BA1
S2140158E003221A70C046BD4680BDC04678490300F3
S2140158F010070020A1E20200884D030081C70100C5
S214015900D5080200913E0200B00400201D5101009E
S214015910E9500100D93E0200413E0200114D01004E
S214015920A404002090B585B000AF09E000202A4B02
S21401593098472A4B18002A4B98470520294B984729
S2140159401020294B984703001A0001235340DBB26D
S214015950002B09D02020244B984703001A0001236E
S2140159605340DBB2002BE1D1204B9847FA239B0032
S21401597018001C4B98471E4B00221A703B001D4A0C
S21401598013CA13C33B0030221A700F23FC183900C8
S214015990194B0A221800194B9847030023700F234E
S2140159A0FB181B78002B08D00F23FB181A78144B12
S2140159B019000020134B984703E0134B1800134BB4
S2140159C098470D4B1800124B9847124B00221A703D
S2140159D0C046BD4605B090BDD50802007046002001
S2140159E0C90F030041AA0100E9490100913E0200E6
S2140159F0B004002030510300E406002091C20200EA
S214015A000C51030081C701001C51030095C601001B
S214015A1091CC0200A404002080B500AF184B984733
S214015A20184B9847184A194B11001800184B9847FD
S214015A30184B9847184B34229B5C01225340DBB22B
S214015A40002B0CD0154A144B11001800144B984724
S214015A50031E04D0134B19000120134B98470E4B1D
S214015A6034229B5C002B04D0104B190001200E4BF6
S214015A7098470F4B01221A70C046BD4680BDC046EE
S214015A80913E020021570100A954010075540100FE
S214015A90D93E0200413E020010070020784903006B
S214015AA06DE10200884D030081C701003C510300EF
S214015AB0A404002080B500AF00200A4B98470A4B8B
S214015AC018000A4B98470A4B98470A4B34229B5CAE
S214015AD0002B04D0074B64211800074B9847C0469B
S214015AE0BD4680BDD508020070460020C90F0300E0
S214015AF0FD5A0100100700209DE3020090B585B015
S214015B0002AF164B1B68390000221800144B984749
S214015B100300012B1ED13B001B881C003B005B8849
S214015B2019003B009B880F4A0F4801930091230000
S214015B303F210E4CA0470C4B18000D4B9847040014
S214015B40094A0C490C4800230193022300932300C1
S214015B500A4CA047C046BD4603B090BDAC04002029
S214015B60959801005851030030000020F9330300D6
S214015B703B3503002850030010070020E9E202002D
S214015B8090B58DB002AF78606420604B9847604B4B
S214015B9098470022042105205E4B984702005E4B81
S214015BA01A600022062105205A4B984702005B4BDB
S214015BB01A60594B1B68002B03D0584B1B68002BEF
S214015BC003D1574B1800574B9847574B1800554B66
S214015BD09847564B9847564B9847564B9847564BBF
S214015BE09847564B9847564B98470C23FB18182254
S214015BF000211800534B9847534B98470C23FB182A
S214015C00524A1A602723FC180C23FB181800504B25
S214015C109847030023702723FB181B785BB2002BE1
S214015C2009D02723FB1800229A564A4B1900012057
S214015C30494B9847FEE7494A494B19000120464B14
S214015C409847484B9847484A484B11001800484B1C
S214015C509847484A4148FF2300931300022209212E
S214015C60454CA04706E00020444B9847444B18009B
S214015C70444B98470220444B984703001A000123DF
S214015C805340DBB2002BEED1FA239B0018001F4BCA
S214015C9098473E4B01221A703C4B1B785BB2012B96
S214015CA00BD002DC002B05D010E0022B08D0032B12
S214015CB009D00BE0364B98470CE0364B984709E085
S214015CC0354B984706E0354B984703E02F4B0022AB
S214015CD01A70C0460B23FB1800221A700E4B1B6865
S214015CE00B22B918002218002D4B98470300012BF0
S214015CF005D10B23FB181B785AB2244B1A70294B7B
S214015D001B786420014B9847C6E7C04641AA0100AC
S214015D1079490100358D0100A8040020AC0400205B
S214015D208451030095C60100AC510300B553010030
S214015D30F153010021570100D1520100D95701004A
S214015D40195801009F31030009EC01007D51010043
S214015D50E1060200C851030081C70100544D03004B
S214015D60F4510300413E0200A9540100755401009C
S214015D70D93E0200484D0300F1080200D508020092
S214015D8070460020C90F0300E9490100A404002061
S214015D90195A0100B55A0100915801002559010010
S214015DA095980100480B002090B583B000AF020023
S214015DB0FB1D1A70FB1D1B78032B06D8054B1868B4
S214015DC0F91D00230A22044CA047C046BD4603B075
S214015DD090BDC046A8040020DD8F010090B585B0B7
S214015DE000AF7860064B1868796800230A22054CD4
S214015DF0A0470300FB60FB681800BD4605B090BDD8
S214015E00AC040020DD8F010080B582B000AF786061
S214015E107B6800221A70C046BD4602B080BD0000F5
S214015E2080B582B000AF02003960FB1D1A70FB1D01
S214015E301B78012B0AD0022B0FD0002B14D10E4B4E
S214015E400D4A91693A680A439A610FE00A4B0A4A79
S214015E50D1693A680A43DA6108E0074B064A116AD3
S214015E603A680A431A6201E0172300E0002318008B
S214015E70BD4602B080BDC0460004004080B582B079
S214015E8000AF78607B6880221A707B6800225A70A7
S214015E907B6801229A707B680022DA70C046BD4694
S214015EA002B080BD80B500AF054B9B78DBB21A000F
S214015EB0022313405A1E9341DBB21800BD4680BD33
S214015EC00020004180B500AF024B9847C046BD4652
S214015ED080BDC046394B020080B500AF024B9847E3
S214015EE0C046BD4680BDC0468D4B020080B582B01F
S214015EF000AF0200FB1D1A70074AFB1D1B78190034
S214015F001F230B40012199400B0019008023D1501B
S214015F10C046BD4602B080BD00E100E080B584B059
S214015F2000AF78607B681B68FB60FB68DB69072253
S214015F3013405A1E9341DBB21800BD4604B080BD23
S214015F4080B582B000AF7860C0467B681800044B0D
S214015F509847031EF9D1C046BD4602B080BDC04673
S214015F601D5F010080B584B000AF78607B681B6858
S214015F70FB607B681B6818000D4B984703001800F0
S214015F800C4B98477B6818000B4B9847FB6883229D
S214015F901A75FB6883221A76FB681B6802229343F4
S214015FA01A00FB681A60C046BD4604B080BDC046F4
S214015FB00D600200ED5E0100415F0100F0B597B093
S214015FC000AF786139610023FB6300233B65002342
S214015FD0FB643B2310229446BC44634400221A709F
S214015FE07B691B68BB637B691B687B632323102269
S214015FF0BA18D4187B6B1800C04B9847030023705F
S2140160000C2310229446BC4463441800BC4B9847AA
S2140160103B69DB697B643B691B6A3B647B6C002BD9
S21401602006D17B6B00211800B64B984703007B64B2
S2140160307B6CDAB20C2310218C46BC4463441A7084
S2140160400C2310229446BC44634402225A707B6C93
S2140160501B0CDBB20C2210218C46BC44624411009E
S2140160601800A94B98473B6C002B06D17B6B01218E
S2140160701800A44B984703003B643B6CDAB20C2330
S21401608010218C46BC4463441A700C23102294469B
S214016090BC44634402225A703B6C1B0CDBB20C22DC
S2140160A010218C46BC44624411001800964B984758
S2140160B03B699A8A7B69DA803B69DA8A7B691A814D
S2140160C03B691B7E002B03D1904B9847031E02D0E1
S2140160D080237B6501E000237B653B691B69002B00
S2140160E004D03B691B697A6D13437B653B699B68EA
S2140160F07A6D13437B653B6924229B5C002B04D09D
S2140161007B6D8022D20513437B653B699B6A002B1E
S21401611004D03B699B6A7A6D13437B653B692C22ED
S2140161209B5C002B05D13B699A6880239B049A42AD
S21401613004D17B6D8022120513437B653B692D22BA
S2140161409B5C002B04D07B6D8022120413437B657D
S2140161503B692E229B5C002B04D07B6D8022D203F0
S21401616013437B65BB6B1A687B6D1A43BB6B1A6066
S214016170BB6B802252005A60232310229446BC44F3
S21401618063441B781433DBB21800614B9847030055
S214016190FB623B691B68FA2292005343BB623B6970
S2140161A05B68FA22920053437B623B691B8E3B621B
S2140161B0584BF86A984705000E00564BB86A984740
S2140161C0B860F960534BF86A9847534C534A544B9E
S2140161D0A04703000C003B607C604E4B386A984732
S2140161E002000B004C4C38687968A04703000C008D
S2140161F0180021004B4C00224B4BA04703000C001B
S2140162001A002300444CB868F968A04703000C0044
S2140162101A002300454C28003100A04703000C005B
S2140162201D002600BB6A5A003A4B10009847020030
S2140162300B003C4C28003100A04703000C0018005E
S21401624021003A4C00223A4BA04703000C001D00E7
S2140162502600BB6A5A002F4B1000984702000B001D
S214016260344C28003100A04703000C00190022001E
S214016270314B0800110098470300FB633B699A689D
S21401628080239B049A426AD1224BF86A9847254C90
S21401629002000B00A04703000C001D0026001D4B4A
S2140162A0786A98471C4C0022244BA04703000C0038
S2140162B01A0023001F4C28003100A04703000C00E1
S2140162C018002100194C0022194BA04703000C00AE
S2140162D019002200184B0800110098470300FB64C0
S2140162E0FB6C002B2ED0164B796AF86A9847030090
S2140162F09A1EFB6CD31A3B6531E0C0463D5F020037
S2140163007D5E0100815D02002D8B0200A55E01000D
S214016310F18802002D2F03001523030095D626E8E9
S2140163200B2E113E8D160300000024401528030095
S2140163300000F03FAD1C0300412E030000000840A2
S2140163400D1303007B6A5A00FB6AD3185A1E7B6A38
S21401635059001D4B100098470300013B3B65FB6B42
S214016360FF2B08DCFB6B002B05DB3B6DFF2B02DCF8
S2140163703B6D002B06DA3B2310229446BC44634453
S21401638040221A703B2310229446BC4463441B7877
S214016390402B0ED0FB6BFF221A403B6D1B041900ED
S2140163A0FF231B040B401343FA6C12061A43BB6B04
S2140163B0DA603B2310229446BC4463441B781800E1
S2140163C0BD4617B0F0BDC0460D13030090B58BB0A7
S2140163D000AFF860B9607A60FB68BA681A60FB685B
S2140163E01B687B62FB681B6818003B4B98470300E1
S2140163F03B623B6A0233FB613B6A1433BB61012299
S214016400FB699A40130019000220344B9847142365
S214016410FB181800324B98477B681A7B1423FB182D
S2140164201A70BB69DBB21422BA18110018002D4B82
S2140164309847BB69DBB218002B4B98477B681B7BE0
S21401644000211800294B98477B6A1B6802221340DB
S21401645001D01C233BE07B6A1B680122134001D05C
S214016460052334E0FB681B681722BC1818001A4B7A
S2140164709847030023701E4A1723FB181B78110048
S21401648018001C4B98471723FB181A781A4B9200D2
S214016490F968D150FB6800221A76FB6800225A760A
S2140164A0FB6800225A83FB6800229A83FB68252238
S2140164B000219954FB6800221A627B6A14221A6032
S2140164C07A68FB68110018000C4B98470300180007
S2140164D0BD460BB090BDC0463D5F0200215E010087
S2140164E0095E0100CD87020011880200F55C0200FA
S2140164F01D2E0100A15F0200C8590020BD5F0100EA
S21401650080B584B000AF78607B681B68FB607B68F1
S21401651018000F4B98477B6818000E4B98470E4B98
S21401652098477B681B6818000C4B984703001800B7
S2140165300B4B98470B4B98477B681800044B9847C2
S214016540FB6801221A60C046BD4604B080BDC04645
S214016550415F0100655F0100C55E01000D6002003C
S21401656049890200D95E010080B584B000AF786029
S2140165707B681B68FB60FB681B7EDBB21A0002238C
S21401658013400BD0FB6802221A76FB685B8B9BB22A
S2140165901A000223134011D0412310E0FB685B8BE5
S2140165A09BB21A000423134008D0FB685B68C02224
S2140165B092021A43FB685A60182300E00023180071
S2140165C0BD4604B080BD80B584B000AF78607B68FE
S2140165D01B68BB600E23FB1800221A800FE00E23F7
S2140165E0FB180E22BA18128801321A807B681B89A2
S2140165F00E22BA1812889A4201D312230EE0BB6803
S2140166001B7EDBB21A000123134006D1BB681B7E3A
S214016610DBB21A0002231340E1D000231800BD4666
S21401662004B080BD90B585B000AF78600A00FB1C51
S2140166301A707B681B68FB60FB685B688022D2026D
S2140166401A43FB685A60FB1C1A78FB685A620B23D4
S214016650FC187B681800074B984703002370FB68FB
S21401666001221A760B23FB181B781800BD4605B0CD
S21401667090BDC046C765010080B500AF0020024B43
S2140166809847C046BD4680BDB566010080B500AFDF
S2140166900120024B9847C046BD4680BDB566010045
S2140166A080B500AF0220024B9847C046BD4680BD6C
S2140166B0B566010080B584B000AF0200FB1D1A70FC
S2140166C0FB1D1A78284B9200D358FB60FB681B68A9
S2140166D09B7BDBB2FA68127E1340DAB2FB68597E06
S2140166E00B23FB180A401A700B23FB181B78012298
S2140166F0134008D0FB689B68FA6810009847FB684F
S2140167001B6801229A730B23FB181B780222134085
S21401671008D0FB68DB68FA6810009847FB681B68BE
S21401672002229A730B23FB181B781022134008D001
S214016730FB681B69FA6810009847FB681B68102203
S2140167409A730B23FB181B782022134008D0FB6892
S2140167505B69FA6810009847FB681B6820229A73E9
S214016760C046BD4604B080BDB047002080B584B0A9
S21401677000AF78600023FB607B68002B01D172B606
S214016780FEE70820114B98470300BB60BB68002B4F
S21401679001D172B6FEE7BB68002B12D00C4B9847AE
S2140167A0BB687A681A60BB6800225A60094B1B688E
S2140167B0BA685A60074BBA681A60074B98470123B4
S2140167C0FB60FB681800BD4604B080BD818B0100EC
S2140167D0498A0100000100206D8A010080B588B059
S2140167E000AFF860B9607A600123FB613D4B1B681E
S2140167F0002B44D13B4B3C4A1A603AE0394B1B68AC
S2140168001B681B68BB61BB691800384B98470300BF
S2140168107B61FA687B69D3181B78202B05D0FA6850
S2140168207B69D3181B78002B1ED17A69B969FB687E
S21401683018002F4B9847031E16D12A4B1B681B685E
S2140168401B7B5BB2002B19DBFB681800294B9847B2
S21401685003001A00234B1B681B681B7B5BB29A4222
S2140168600CD00023FB6109E01E4B1B685A681D4BC8
S2140168701A601C4B1B68002BC0D100E0C046194BA8
S2140168801B68002B0CD0FB69002B09D17A681A49CA
S214016890BB681800194B9847124B00221A601CE07F
S2140168A0104B1B68002B10D00E4B1B681B689B6897
S2140168B0FA687968B86898470300FB61FB69002BA2
S2140168C00BD1084B00221A6007E07A680C49BB68B6
S2140168D018000A4B98470023FB61FB691800BD4668
S2140168E008B080BD4C0B0020F80000203B350300AB
S2140168F04935030065690100645203006B350300E6
S214016900BC52030080B586B000AFF860B9607A600B
S214016910114B1B68002B02D10F4B104A1A600E4B0D
S2140169201B681B685968BA68FB6818000C4B9847C7
S214016930094B1B685A68084B1A60074B1B68002BEB
S21401694002D100237B6101E001237B617B69180092
S214016950BD4606B080BDC046500B0020F8000020A2
S2140169606B35030080B584B000AF78600F23FB1849
S21401697000221A700023BB6018E07B681B78202B6E
S2140169800FD1BB68012B0ED00F23FB181B785BB20F
S214016990DBB20133DAB20F23FB181A700123BB6096
S2140169A001E00023BB607B6801337B607B681B785A
S2140169B0002BE2D1BB68012B09D10F23FB181B78F2
S2140169C05BB2DBB2013BDAB20F23FB181A700F235E
S2140169D0FB181B785BB21800BD4604B080BD0000F2
S2140169E080B582B000AF78607B681800034B98478B
S2140169F003001800BD4602B080BDC046A5A1010037
S214016A0080B582B000AF78607B681800034B98476A
S214016A1003001800BD4602B080BDC046D1A10100EA
S214016A2080B582B000AF78607B681800034B98474A
S214016A3003009BB21800BD4602B080BD01B501003F
S214016A4080B582B000AF78607B681800044B984729
S214016A5003001B0C9BB21800BD4602B080BDC046A9
S214016A6001B5010080B582B000AF78600A00BB1C9A
S214016A701A807B681800084B984703001B0C1A0401
S214016A80BB1C1B881A437B6811001800034B9847F0
S214016A90C046BD4602B080BD01B5010029B5010062
S214016AA080B582B000AF78600A00BB1C1A807B6894
S214016AB01800094B984703001B041A0CBB1C1B88C3
S214016AC01B041A437B6811001800044B9847C04604
S214016AD0BD4602B080BDC04601B5010029B5010022
S214016AE080B582B000AF78607B681800034B98478A
S214016AF003009BB21800BD4602B080BDE1690100EB
S214016B0080B582B000AF78607B681800044B984768
S214016B1003001B0C9BB21800BD4602B080BDC046E8
S214016B20E169010080B582B000AF78600A00BB1C45
S214016B301A807B681800084B984703001B0C1A0440
S214016B40BB1C1B881A437B6811001800034B98472F
S214016B50C046BD4602B080BDE1690100B9A1010091
S214016B6080B582B000AF78600A00BB1C1A807B68D3
S214016B701800094B984703001B041A0CBB1C1B8802
S214016B801B041A437B6811001800044B9847C04643
S214016B90BD4602B080BDC046E1690100B9A1010051
S214016BA080B584B000AF78600023FB600023BB6033
S214016BB018E0144BBA68D200D358002B0FD1114BF2
S214016BC0BA68D2007968D1500E4ABB68DB00D31888
S214016BD00433012252421A600123FB6005E0BB68C0
S214016BE00133BB60BB68092BE3DDFB68002B04D1D6
S214016BF0054B1B685A1C044B1A60C046BD4604B0C0
S214016C0080BDC046580B0020A80B002090B585B06B
S214016C1000AF0023FB602B4B1B68BB60294B1A6837
S214016C20294BD200D358002B35D0264B1A68264B59
S214016C30D200D3581800254B984703007B60214BA0
S214016C401B68214ADB00D31804331A687B689A4212
S214016C5007D91C4B1B681C4ADB00D31804337A681F
S214016C601A60184B1A68184BD200D3581800184BE4
S214016C7098470300DBB21900124B1B68124ADB006F
S214016C80D31804331B680A000321EA20114CA047DD
S214016C90FB680133FB600B4B1B685A1C0E4B0A2129
S214016CA0100098470B001A00064B1A60FB68002B71
S214016CB004DC044B1A68BB689A42AFD1C046BD4695
S214016CC005B090BDAC0B0020580B0020A1B601000A
S214016CD0216A010069750100ED15030080B500AF5A
S214016CE0024B984703001800BD4680BD4DB7010012
S214016CF090B585B002AF7860144B98477B68012B3E
S214016D0002D1134B98470EE07B68022B04D1114B3E
S214016D101800114B984706E07B68002B03D00F4BF9
S214016D2018000D4B98470E4B1B68002B0AD1962373
S214016D305A000C490C480A4B019304230093002384
S214016D400A4CA047C046BD4603B090BD357C010045
S214016D508D7101001C530300DD8201005C530300AA
S214016D60540B002090530300716D0100A5A601008D
S214016D7080B582B000AF7860044B9847031E01D0FF
S214016D80034B98470420034B9847F5E7D171010060
S214016D900D6C010041AA010080B500AF604B1B6875
S214016DA00922DA655E4B1B6864220A2199545C4B02
S214016DB01B6865220A219954594B1B6866220A21D1
S214016DC09954574B1B6867220F219954544B1B68E3
S214016DD0682205219954524B1B6869220521995452
S214016DE04F4B1B686A22052199544D4B1B686B2239
S214016DF0052199544A4B1B686C2205219954484B2E
S214016E001B6870220F219954454B1B6871220F2174
S214016E109954434B1B6872220F219954404B1B68AF
S214016E2073220F2199543E4B1B6874220F219954EB
S214016E303B4B1B6875220F219954394B1B687622F0
S214016E400F219954364B1B6877220F219954344BE6
S214016E501B6878220F219954314B1B687C22102124
S214016E6099542F4B1B687D22102199542C4B1B687B
S214016E707E22102199542A4B1B687F221321995494
S214016E80274B1B68802211219954254B1B688122B0
S214016E9010219954224B1B68822213219954204BAE
S214016EA01B688322132199541D4B1B6884221321CE
S214016EB099541B4B1B68882200219952184B1B685A
S214016EC08A22A0219952164B1B688C22A0214900C8
S214016ED09952134B1B688E22F02149009952104B90
S214016EE01B6890220F4999520D4B1B6892220E493E
S214016EF099520B4B1B6894220C499952084B1B68FC
S214016F0096220B499952064B1B6898228C21C90080
S214016F109952034B1B68074A1A66C046BD4680BD98
S214016F206C0C0020FD02000052030000A2030000CA
S214016F3001040000BF04000080B500AF2E4B002204
S214016F405A822D4B5A8A2C4B1A802B4B0A229A8234
S214016F50294B9A8A284B5A80274B1422DA82264BD1
S214016F60DA8A254B9A80244B1E221A83224B1A8BCF
S214016F70214BDA80204B2D225A831F4B5A8B1E4BF6
S214016F801A811D4B32229A831B4B9A8B1A4B5A81BC
S214016F90194B3722DA83184BDA8B174B9A81164B2B
S214016FA03C221A84144B1A8C134BDA81124B412261
S214016FB05A84114B5A8C104B1A820F4B09229A8411
S214016FC00D4B1322DA840C4B1D221A850A4B2C22F8
S214016FD05A85094B31229A85074B3622DA85064BAC
S214016FE03B221A86044B40225A86034B45229A8638
S214016FF0C046BD4680BDC046DC0B002080B582B0D1
S21401700000AF0200FB1D1A70FB1D1B78082B16D85B
S2140170109A000D4BD3181B689F460C4B10E00C4B87
S2140170200EE00C4B0CE00C4B0AE00C4B08E00C4B52
S21401703006E00C4B04E00C4B02E00C4B00E00C4B62
S2140170401800BD4602B080BD985603009853030051
S214017050E0530300285403007C540300C854030083
S2140170601455030060550300B45503000C56030085
S2140170706856030090B587B000AF1723FB180022AF
S2140170801A70364B1B68002B0BD1344B1B68002B38
S21401709005D1334B1800334B9847002359E00023A2
S2140170A057E02E4B1B681B6B012B01D1012350E0CF
S2140170B02D4B1B68002B49D1EFF31083BB60BB68D7
S2140170C03B610123FB60FB6883F31088274B1B6839
S2140170D05A1C264B1A60214B1B6801221A63244B4B
S2140170E0984703001800234B984703001A001723FC
S2140170F0FB181A701723FB181B78002B16D11723C1
S214017100FC1803201C4B9847030023701B4A1723C7
S214017110FB181B7819000320194B98471723FB18F7
S2140171201B78002219000320164B98471723FB18DB
S2140171301B781800144B98470C4B1B685A1E0B4BB8
S2140171401A603B697B607B6883F31088034B1B687E
S2140171501B6B1800BD4607B090BDC0466C0C0020E6
S214017160BC560300DD820100CC0B0020C40B0020BE
S214017170DD6C0100216A0100C17F01000057030098
S214017180F1810100557901003D78010080B500AF1D
S214017190024B9847C046BD4680BDC046757001008B
S2140171A080B500AF084B1B68002B03D0064B1B684D
S2140171B000221A63054B1B68002B02D0034B1B6889
S2140171C09847C046BD4680BD6C0C0020D40B0020FD
S2140171D080B500AF054B1B68002B03D0034B1B6823
S2140171E01B6B00E000231800BD4680BD6C0C002020
S2140171F090B589B000AF0200FB1D1A70FB1D1B780D
S214017200002B57D02E4B1B68002B55D0FB1D1B782F
S2140172100F2B04D92B4B18002B4B98474DE02B4BCB
S2140172201B68002B04D02A4B1800274B984744E0D4
S214017230EFF31083FB60FB68FB6101233B613B6955
S21401724083F31088214B1B685A1C204B1A60214B74
S2140172501B681B6B002B22D01A23FC181E4B180030
S2140172601E4B9847030023801923FB18FA1D12783A
S2140172701A701B4B984703007B617B69002B0ED06D
S2140172807B6902221A707B691A22BA1812885A8000
S2140172907B691922BA1812785A70124B98470B4B11
S2140172A01B685A1E094B1A60FB69BB60BB6883F3F7
S2140172B0108802E0C04600E0C046BD4609B090BD59
S2140172C00C010020685A0300DD820100C40B002077
S2140172D0A85A03006C0C0020FFFF0000F184010097
S2140172E0957E01009984010080B58EB000AFF860EC
S2140172F0B9607A60484B1B68002B00D188E07B6838
S214017300002B03DA7B685B427B6301E07B687B636F
S214017310EFF31083BB61BB693B630123FB61FB6930
S21401732083F310883D4B1B685A1C3C4B1A60BB68A4
S214017330002B05D03A4B1A687B68D218384B1A6076
S214017340354B1B681B6B002B57D0FF20354B9847DE
S21401735003001A002F23FB181A707B6B324A1900A0
S2140173601000324B984702002C23FB181A80304B32
S21401737098470300BB62BB6A002B3ED0BB6A2F2234
S214017380BA1812785A70BB6A00221A70BB6A2C228D
S214017390BA1812885A80274B9847BB68224A1900A8
S2140173A01000224B984702002623FB181A8025233B
S2140173B0FB1800221A701E4B984703003B623B6A7B
S2140173C0002B1AD03B6A2622BA1812885A803B6ACA
S2140173D02522BA1812785A70FB68DBB20133DAB28A
S2140173E03B6A1A70FB68DAB2BB6A1A70114B98478F
S2140173F0094B1B680A4A12681A65084B1B685A1E15
S214017400064B1A603B6B7B617B6983F3108800E057
S214017410C046BD460EB080BD6C0C0020C40B0020DB
S214017420D80B0020F1840100FFFF0000B5760100B3
S214017430957E01009984010090B58BB000AFF8608D
S2140174407A600B23FB180A1C1A70FB68FE2B04D902
S214017450394B1800394B98476BE00B23FB181B7808
S214017460082B04D9364B1800344B984761E0354B4E
S2140174701A680B23FB181B786421D3185B181B783A
S2140174801A007B689A4204D22F4B18002B4B984760
S2140174904FE02E4B1B68002B04D02D4B1800274BBA
S2140174A0984746E02B4B1B78002B41D0EFF3108317
S2140174B07B617B697B620123BB61BB6983F31088B7
S2140174C0224B1B685A1C214B1A601E4B1B681B6BF8
S2140174D0002B22D02223FC181F4B18001F4B984765
S2140174E0030023802123FB187A681A701C4B9847E7
S2140174F00300FB61FB69002B0FD0FB692222BA183F
S21401750012885A80FB68DAB2FB691A70FB6921227D
S214017510BA1812785A70134B98470C4B1B685A1EB0
S2140175200A4B1A607B6A3B613B6983F3108800E073
S214017530C046BD460BB090BD185B0300DD8201005E
S214017540505B03006C0C0020985B0300C40B00200A
S214017550E05B0300D00B0020FFFF0000F184010078
S214017560957E01009984010080B58AB000AFF8606D
S2140175707A603B600B23FB180A1C1A70FB68FE2B13
S21401758004D9404B1800404B984777E00B23FB1873
S2140175901B78082B04D93D4B18003B4B98476DE0F0
S2140175A03B4B1A680B23FB181B786421D3185B1816
S2140175B01B781A007B689A4204D2364B1800324B6D
S2140175C098475BE0344B1B68002B04D0334B180004
S2140175D02D4B984752E0EFF310837B617B697B620A
S2140175E00123BB61BB6983F310882B4B1B685A1CB4
S2140175F0294B1A60264B1B681B6B002B34D0284B7B
S2140176001B78002B30D0FF20264B984703001A002A
S2140176102323FB181A703B681900FF20224B98475A
S21401762002002223FB181A702123FB187A681A70AD
S2140176301E4B98470300FB61FB69002B14D0FB69C6
S2140176402322BA181278DA70FB68DAB2FB691A706C
S214017650FB692122BA1812785A70FB692222BA18DD
S21401766012789A70124B98470B4B1B685A1E0A4B9E
S2140176701A607B6A3B613B6983F31088BD460AB09A
S21401768080BDC046185C0300DD820100585C030023
S2140176906C0C0020A85C0300C40B0020F85C0300FF
S2140176A0D00B0020F1840100B5760100957E010023
S2140176B09984010080B584B000AF786039607B683A
S2140176C0FF2B09D07B68194A934205D0184B180046
S2140176D0184B98473B6824E03A687B689A4201D881
S2140176E03B681EE0144B98470300FB60FB68002BC9
S2140176F014D0FB6801221A707B68DB433A6813409A
S2140177001B0ADAB2FB685A707B68DB433A6813409F
S2140177101B0C9AB2FB685A80084B98473B687A68FC
S21401772013401800BD4604B080BDC046FFFF0000F0
S214017730305D0300DD820100957E01009984010021
S21401774080B58AB000AF786039602623FB18002226
S2140177501A807B68FE2B04D92D4B18002D4B9847B9
S21401776053E02D4B1B68002B04D02C4B1800294BE3
S21401777098474AE0EFF310833B613B693B62012384
S2140177807B617B6983F31088234B1B685A1C224B51
S2140177901A60234B1B681B6B002B2CD0214B1B78CC
S2140177A0002B28D0FF20204B984703001A001F23E8
S2140177B0FB181A703B681D4A190010001C4B9847AD
S2140177C002002623FB181A801A4B98470300BB6158
S2140177D0BB69002B0FD0BB691F22BA1812785A70EA
S2140177E07B68DAB2BB691A70BB692622BA1812889E
S2140177F05A80114B9847084B1B685A1E064B1A6055
S2140178003B6AFB60FB6883F31088BD460AB080BD07
S2140178106C5D0300DD820100C40B0020C45D030023
S2140178206C0C0020D00B0020F1840100FFFF00004B
S214017830B5760100957E01009984010090B589B066
S21401784000AF0200FB1D1A70FB1D1B780F2B04D91D
S214017850344B1800344B984761E0EFF31083FB601C
S214017860FB68FB6101233B613B6983F310882F4B67
S2140178701B685A1C2D4B1A602D4B1B78FA1D12786B
S2140178809A4242D02B4B1B681B6B002B3DD02A4BD8
S21401789000221A601A23FC18284B1800284B984718
S2140178A003002380224BFA1D12781A701923FB1845
S2140178B01F4A12781A70234B984703007B617B6935
S2140178C0002B22D01A4B1B78190003201E4B984719
